{
  "address": "0x55C1Be7aFb2E3252F6019e5E476779Fc191ceEa9",
  "abi": [
    {
      "anonymous": false,
      "inputs": [
        {
          "indexed": true,
          "internalType": "uint256",
          "name": "hackathonId",
          "type": "uint256"
        },
        {
          "indexed": false,
          "internalType": "string",
          "name": "name",
          "type": "string"
        },
        {
          "indexed": false,
          "internalType": "string",
          "name": "url",
          "type": "string"
        },
        {
          "indexed": false,
          "internalType": "uint256",
          "name": "timestampStart",
          "type": "uint256"
        },
        {
          "indexed": false,
          "internalType": "uint256",
          "name": "timestampEnd",
          "type": "uint256"
        },
        {
          "indexed": false,
          "internalType": "uint8",
          "name": "judgingPeriod",
          "type": "uint8"
        }
      ],
      "name": "HackathonChanged",
      "type": "event"
    },
    {
      "anonymous": false,
      "inputs": [
        {
          "indexed": true,
          "internalType": "uint256",
          "name": "hackathonId",
          "type": "uint256"
        },
        {
          "indexed": true,
          "internalType": "address",
          "name": "organizer",
          "type": "address"
        },
        {
          "indexed": false,
          "internalType": "string",
          "name": "name",
          "type": "string"
        },
        {
          "indexed": false,
          "internalType": "string",
          "name": "url",
          "type": "string"
        },
        {
          "indexed": false,
          "internalType": "uint256",
          "name": "timestampStart",
          "type": "uint256"
        },
        {
          "indexed": false,
          "internalType": "uint256",
          "name": "timestampEnd",
          "type": "uint256"
        },
        {
          "indexed": false,
          "internalType": "uint8",
          "name": "judgingPeriod",
          "type": "uint8"
        }
      ],
      "name": "HackathonCreated",
      "type": "event"
    },
    {
      "anonymous": false,
      "inputs": [
        {
          "indexed": true,
          "internalType": "uint256",
          "name": "hackathonId",
          "type": "uint256"
        },
        {
          "indexed": true,
          "internalType": "uint256",
          "name": "prizeId",
          "type": "uint256"
        },
        {
          "indexed": false,
          "internalType": "uint256",
          "name": "reward",
          "type": "uint256"
        },
        {
          "indexed": false,
          "internalType": "string",
          "name": "name",
          "type": "string"
        },
        {
          "indexed": false,
          "internalType": "string",
          "name": "description",
          "type": "string"
        }
      ],
      "name": "HackathonPrizeCreated",
      "type": "event"
    },
    {
      "anonymous": false,
      "inputs": [
        {
          "indexed": true,
          "internalType": "uint256",
          "name": "hackathonId",
          "type": "uint256"
        },
        {
          "indexed": true,
          "internalType": "uint256",
          "name": "prizeId",
          "type": "uint256"
        },
        {
          "indexed": false,
          "internalType": "address",
          "name": "judge",
          "type": "address"
        }
      ],
      "name": "HackathonPrizeJudgeAdded",
      "type": "event"
    },
    {
      "anonymous": false,
      "inputs": [
        {
          "indexed": true,
          "internalType": "uint256",
          "name": "hackathonId",
          "type": "uint256"
        },
        {
          "indexed": false,
          "internalType": "enum Hacka.HackathonStage",
          "name": "previousStage",
          "type": "uint8"
        },
        {
          "indexed": false,
          "internalType": "enum Hacka.HackathonStage",
          "name": "newStage",
          "type": "uint8"
        }
      ],
      "name": "HackathonStageChanged",
      "type": "event"
    },
    {
      "anonymous": false,
      "inputs": [
        {
          "indexed": true,
          "internalType": "uint256",
          "name": "submissionId",
          "type": "uint256"
        },
        {
          "indexed": true,
          "internalType": "uint256",
          "name": "hackathonId",
          "type": "uint256"
        },
        {
          "indexed": true,
          "internalType": "uint256",
          "name": "prizeId",
          "type": "uint256"
        }
      ],
      "name": "HackathonSubmissionAddedPrize",
      "type": "event"
    },
    {
      "anonymous": false,
      "inputs": [
        {
          "indexed": true,
          "internalType": "uint256",
          "name": "submissionId",
          "type": "uint256"
        },
        {
          "indexed": true,
          "internalType": "uint256",
          "name": "hackathonId",
          "type": "uint256"
        },
        {
          "indexed": true,
          "internalType": "address",
          "name": "participant",
          "type": "address"
        },
        {
          "indexed": false,
          "internalType": "string",
          "name": "name",
          "type": "string"
        }
      ],
      "name": "HackathonSubmissionCreated",
      "type": "event"
    },
    {
      "anonymous": false,
      "inputs": [
        {
          "indexed": true,
          "internalType": "address",
          "name": "previousOwner",
          "type": "address"
        },
        {
          "indexed": true,
          "internalType": "address",
          "name": "newOwner",
          "type": "address"
        }
      ],
      "name": "OwnershipTransferred",
      "type": "event"
    },
    {
      "inputs": [
        {
          "internalType": "uint256",
          "name": "_hackathonId",
          "type": "uint256"
        },
        {
          "internalType": "uint256",
          "name": "_prizeId",
          "type": "uint256"
        },
        {
          "internalType": "address",
          "name": "_judge",
          "type": "address"
        }
      ],
      "name": "addJudge",
      "outputs": [],
      "stateMutability": "nonpayable",
      "type": "function"
    },
    {
      "inputs": [
        {
          "internalType": "uint256",
          "name": "_amount",
          "type": "uint256"
        },
        {
          "internalType": "uint256",
          "name": "_hackathonId",
          "type": "uint256"
        },
        {
          "internalType": "string",
          "name": "_name",
          "type": "string"
        },
        {
          "internalType": "string",
          "name": "_description",
          "type": "string"
        }
      ],
      "name": "addPrize",
      "outputs": [
        {
          "internalType": "uint256",
          "name": "prizeId",
          "type": "uint256"
        }
      ],
      "stateMutability": "payable",
      "type": "function"
    },
    {
      "inputs": [
        {
          "internalType": "bytes",
          "name": "",
          "type": "bytes"
        }
      ],
      "name": "checkUpkeep",
      "outputs": [
        {
          "internalType": "bool",
          "name": "upkeepNeeded",
          "type": "bool"
        },
        {
          "internalType": "bytes",
          "name": "",
          "type": "bytes"
        }
      ],
      "stateMutability": "view",
      "type": "function"
    },
    {
      "inputs": [
        {
          "internalType": "uint256",
          "name": "_timestampStart",
          "type": "uint256"
        },
        {
          "internalType": "uint256",
          "name": "_timestampEnd",
          "type": "uint256"
        },
        {
          "internalType": "string",
          "name": "_name",
          "type": "string"
        },
        {
          "internalType": "string",
          "name": "_url",
          "type": "string"
        },
        {
          "internalType": "uint8",
          "name": "_judgingPeriod",
          "type": "uint8"
        }
      ],
      "name": "createHackathon",
      "outputs": [
        {
          "internalType": "uint256",
          "name": "hackathonId",
          "type": "uint256"
        }
      ],
      "stateMutability": "nonpayable",
      "type": "function"
    },
    {
      "inputs": [],
      "name": "disableDemoMode",
      "outputs": [],
      "stateMutability": "nonpayable",
      "type": "function"
    },
    {
      "inputs": [],
      "name": "enableDemoMode",
      "outputs": [],
      "stateMutability": "nonpayable",
      "type": "function"
    },
    {
      "inputs": [
        {
          "internalType": "uint256",
          "name": "_hackathonId",
          "type": "uint256"
        }
      ],
      "name": "getHackathonMetadata",
      "outputs": [
        {
          "components": [
            {
              "internalType": "address",
              "name": "organizer",
              "type": "address"
            },
            {
              "internalType": "uint256",
              "name": "timestampStart",
              "type": "uint256"
            },
            {
              "internalType": "uint256",
              "name": "timestampEnd",
              "type": "uint256"
            },
            {
              "internalType": "uint8",
              "name": "judgingPeriod",
              "type": "uint8"
            },
            {
              "internalType": "enum Hacka.HackathonStage",
              "name": "stage",
              "type": "uint8"
            },
            {
              "internalType": "string",
              "name": "name",
              "type": "string"
            },
            {
              "internalType": "string",
              "name": "url",
              "type": "string"
            },
            {
              "internalType": "uint256",
              "name": "balance",
              "type": "uint256"
            }
          ],
          "internalType": "struct Hacka.HackathonMetadata",
          "name": "",
          "type": "tuple"
        }
      ],
      "stateMutability": "view",
      "type": "function"
    },
    {
      "inputs": [
        {
          "internalType": "address",
          "name": "_organizer",
          "type": "address"
        }
      ],
      "name": "getHackathonsByOrganizer",
      "outputs": [
        {
          "internalType": "uint256[]",
          "name": "",
          "type": "uint256[]"
        }
      ],
      "stateMutability": "view",
      "type": "function"
    },
    {
      "inputs": [],
      "name": "owner",
      "outputs": [
        {
          "internalType": "address",
          "name": "",
          "type": "address"
        }
      ],
      "stateMutability": "view",
      "type": "function"
    },
    {
      "inputs": [
        {
          "internalType": "bytes",
          "name": "",
          "type": "bytes"
        }
      ],
      "name": "performUpkeep",
      "outputs": [],
      "stateMutability": "nonpayable",
      "type": "function"
    },
    {
      "inputs": [],
      "name": "renounceOwnership",
      "outputs": [],
      "stateMutability": "nonpayable",
      "type": "function"
    },
    {
      "inputs": [
        {
          "internalType": "uint256",
          "name": "",
          "type": "uint256"
        }
      ],
      "name": "s_hackathons",
      "outputs": [
        {
          "internalType": "address",
          "name": "organizer",
          "type": "address"
        },
        {
          "internalType": "uint256",
          "name": "timestampStart",
          "type": "uint256"
        },
        {
          "internalType": "uint256",
          "name": "timestampEnd",
          "type": "uint256"
        },
        {
          "internalType": "uint8",
          "name": "judgingPeriod",
          "type": "uint8"
        },
        {
          "internalType": "enum Hacka.HackathonStage",
          "name": "stage",
          "type": "uint8"
        },
        {
          "internalType": "string",
          "name": "name",
          "type": "string"
        },
        {
          "internalType": "string",
          "name": "url",
          "type": "string"
        },
        {
          "internalType": "uint256",
          "name": "balance",
          "type": "uint256"
        }
      ],
      "stateMutability": "view",
      "type": "function"
    },
    {
      "inputs": [],
      "name": "s_interval",
      "outputs": [
        {
          "internalType": "uint256",
          "name": "",
          "type": "uint256"
        }
      ],
      "stateMutability": "view",
      "type": "function"
    },
    {
      "inputs": [],
      "name": "s_lastTimeStamp",
      "outputs": [
        {
          "internalType": "uint256",
          "name": "",
          "type": "uint256"
        }
      ],
      "stateMutability": "view",
      "type": "function"
    },
    {
      "inputs": [
        {
          "internalType": "address",
          "name": "",
          "type": "address"
        },
        {
          "internalType": "uint256",
          "name": "",
          "type": "uint256"
        }
      ],
      "name": "s_organizerHackathons",
      "outputs": [
        {
          "internalType": "uint256",
          "name": "",
          "type": "uint256"
        }
      ],
      "stateMutability": "view",
      "type": "function"
    },
    {
      "inputs": [
        {
          "internalType": "uint256",
          "name": "",
          "type": "uint256"
        },
        {
          "internalType": "uint256",
          "name": "",
          "type": "uint256"
        }
      ],
      "name": "s_prizes",
      "outputs": [
        {
          "internalType": "uint256",
          "name": "reward",
          "type": "uint256"
        },
        {
          "internalType": "string",
          "name": "name",
          "type": "string"
        },
        {
          "internalType": "string",
          "name": "description",
          "type": "string"
        },
        {
          "internalType": "address payable",
          "name": "winner",
          "type": "address"
        },
        {
          "internalType": "bool",
          "name": "finalized",
          "type": "bool"
        }
      ],
      "stateMutability": "view",
      "type": "function"
    },
    {
      "inputs": [
        {
          "internalType": "uint256",
          "name": "",
          "type": "uint256"
        },
        {
          "internalType": "uint256",
          "name": "",
          "type": "uint256"
        }
      ],
      "name": "s_submissions",
      "outputs": [
        {
          "internalType": "address payable",
          "name": "participant",
          "type": "address"
        },
        {
          "internalType": "string",
          "name": "name",
          "type": "string"
        },
        {
          "internalType": "string",
          "name": "description",
          "type": "string"
        },
        {
          "internalType": "uint256",
          "name": "hackathonId",
          "type": "uint256"
        }
      ],
      "stateMutability": "view",
      "type": "function"
    },
    {
      "inputs": [
        {
          "internalType": "uint256",
          "name": "_hackathonId",
          "type": "uint256"
        },
        {
          "internalType": "string",
          "name": "_name",
          "type": "string"
        },
        {
          "internalType": "string",
          "name": "_description",
          "type": "string"
        },
        {
          "internalType": "uint256[]",
          "name": "_prizes",
          "type": "uint256[]"
        }
      ],
      "name": "submitProject",
      "outputs": [],
      "stateMutability": "nonpayable",
      "type": "function"
    },
    {
      "inputs": [
        {
          "internalType": "address",
          "name": "newOwner",
          "type": "address"
        }
      ],
      "name": "transferOwnership",
      "outputs": [],
      "stateMutability": "nonpayable",
      "type": "function"
    },
    {
      "inputs": [
        {
          "internalType": "uint256",
          "name": "_hackathonId",
          "type": "uint256"
        },
        {
          "internalType": "uint256",
          "name": "_timestampStart",
          "type": "uint256"
        },
        {
          "internalType": "uint256",
          "name": "_timestampEnd",
          "type": "uint256"
        },
        {
          "internalType": "string",
          "name": "_name",
          "type": "string"
        },
        {
          "internalType": "string",
          "name": "_url",
          "type": "string"
        },
        {
          "internalType": "uint8",
          "name": "_judgingPeriod",
          "type": "uint8"
        }
      ],
      "name": "updateHackathonMetadata",
      "outputs": [],
      "stateMutability": "nonpayable",
      "type": "function"
    },
    {
      "inputs": [
        {
          "internalType": "uint256",
          "name": "_hackathonId",
          "type": "uint256"
        },
        {
          "internalType": "uint256",
          "name": "_prizeId",
          "type": "uint256"
        },
        {
          "internalType": "uint8[]",
          "name": "_votes",
          "type": "uint8[]"
        }
      ],
      "name": "voteOnProjects",
      "outputs": [],
      "stateMutability": "nonpayable",
      "type": "function"
    }
  ],
  "transactionHash": "0xd6bd06a61d94bdca0aa6965484219f4acb24961d5405743d849c891c172582e9",
  "args": [],
  "solcInputHash": "649e596c96c6d27de7a46caa689be9f9",
  "bytecode": "0x60a060405260008060146101000a81548160ff0219169083151502179055506000600155610e106080908152503480156200003957600080fd5b506200005a6200004e6200006060201b60201c565b6200006860201b60201c565b6200012c565b600033905090565b60008060009054906101000a900473ffffffffffffffffffffffffffffffffffffffff169050816000806101000a81548173ffffffffffffffffffffffffffffffffffffffff021916908373ffffffffffffffffffffffffffffffffffffffff1602179055508173ffffffffffffffffffffffffffffffffffffffff168173ffffffffffffffffffffffffffffffffffffffff167f8be0079c531659141344cd1fd0a4f28419497f9722a3daafe3b4186f6b6457e060405160405180910390a35050565b608051614e976200014f6000396000818161102101526121990152614e976000f3fe60806040526004361061012a5760003560e01c80638da5cb5b116100ab578063c03846211161006f578063c038462114610400578063cc9b2ea31461043d578063d738c38f14610468578063dad39e7b14610491578063f2fde38b146104a8578063fb39df8e146104d15761012a565b80638da5cb5b1461032c57806395583b7b1461035757806395c9331514610380578063adb622db146103c0578063addf269d146103d75761012a565b8063492c7c0d116100f2578063492c7c0d1461022d5780636e04ff0d14610271578063715018a6146102af5780637dc0cae4146102c657806389e1037c146103035761012a565b8063042054f41461012f578063337057791461016c578063348540431461019c5780634585e33b146101c75780634651efb5146101f0575b600080fd5b34801561013b57600080fd5b506101566004803603810190610151919061320e565b610512565b60405161016391906141d1565b60405180910390f35b6101866004803603810190610181919061340b565b610730565b60405161019391906141f3565b60405180910390f35b3480156101a857600080fd5b506101b1610a2a565b6040516101be91906141f3565b60405180910390f35b3480156101d357600080fd5b506101ee60048036038101906101e991906131c1565b610a30565b005b3480156101fc57600080fd5b50610217600480360381019061021291906134b2565b610c1c565b60405161022491906141f3565b60405180910390f35b34801561023957600080fd5b50610254600480360381019061024f919061320e565b610e72565b604051610268989796959493929190613d01565b60405180910390f35b34801561027d57600080fd5b50610298600480360381019061029391906131c1565b611004565b6040516102a6929190613daf565b60405180910390f35b3480156102bb57600080fd5b506102c46112a1565b005b3480156102d257600080fd5b506102ed60048036038101906102e89190613181565b611329565b6040516102fa91906141f3565b60405180910390f35b34801561030f57600080fd5b5061032a60048036038101906103259190613344565b61135a565b005b34801561033857600080fd5b506103416115d8565b60405161034e9190613c93565b60405180910390f35b34801561036357600080fd5b5061037e60048036038101906103799190613397565b611601565b005b34801561038c57600080fd5b506103a760048036038101906103a29190613304565b611ac9565b6040516103b79493929190613cae565b60405180910390f35b3480156103cc57600080fd5b506103d5611c46565b005b3480156103e357600080fd5b506103fe60048036038101906103f9919061323b565b611cdf565b005b34801561040c57600080fd5b5061042760048036038101906104229190613154565b612100565b6040516104349190613d8d565b60405180910390f35b34801561044957600080fd5b50610452612197565b60405161045f91906141f3565b60405180910390f35b34801561047457600080fd5b5061048f600480360381019061048a919061356e565b6121bb565b005b34801561049d57600080fd5b506104a661245b565b005b3480156104b457600080fd5b506104cf60048036038101906104ca9190613154565b6124f3565b005b3480156104dd57600080fd5b506104f860048036038101906104f39190613304565b6125eb565b604051610509959493929190614257565b60405180910390f35b61051a612eaa565b60026000838152602001908152602001600020604051806101000160405290816000820160009054906101000a900473ffffffffffffffffffffffffffffffffffffffff1673ffffffffffffffffffffffffffffffffffffffff1673ffffffffffffffffffffffffffffffffffffffff16815260200160018201548152602001600282015481526020016003820160009054906101000a900460ff1660ff1660ff1681526020016003820160019054906101000a900460ff1660038111156105e5576105e46145bd565b5b60038111156105f7576105f66145bd565b5b815260200160048201805461060b90614513565b80601f016020809104026020016040519081016040528092919081815260200182805461063790614513565b80156106845780601f1061065957610100808354040283529160200191610684565b820191906000526020600020905b81548152906001019060200180831161066757829003601f168201915b5050505050815260200160058201805461069d90614513565b80601f01602080910402602001604051908101604052809291908181526020018280546106c990614513565b80156107165780601f106106eb57610100808354040283529160200191610716565b820191906000526020600020905b8154815290600101906020018083116106f957829003601f168201915b505050505081526020016006820154815250509050919050565b600086341461073e57600080fd5b60006003811115610752576107516145bd565b5b6002600088815260200190815260200160002060030160019054906101000a900460ff166003811115610788576107876145bd565b5b146107c8576040517f08c379a00000000000000000000000000000000000000000000000000000000081526004016107bf90614131565b60405180910390fd5b3373ffffffffffffffffffffffffffffffffffffffff166002600088815260200190815260200160002060000160009054906101000a900473ffffffffffffffffffffffffffffffffffffffff1673ffffffffffffffffffffffffffffffffffffffff161461086c576040517f08c379a000000000000000000000000000000000000000000000000000000000815260040161086390613ef1565b60405180910390fd5b600885859050116108b2576040517f08c379a00000000000000000000000000000000000000000000000000000000081526004016108a9906141b1565b60405180910390fd5b655af3107a40003410156108fb576040517f08c379a00000000000000000000000000000000000000000000000000000000081526004016108f290613fd1565b60405180910390fd5b34600260008881526020019081526020016000206006016000828254610921919061433a565b92505081905550600060036000888152602001908152602001600020805490509050600360008881526020019081526020016000206001816001815401808255809150500390600052602060002090505060006003600089815260200190815260200160002082815481106109995761099861461b565b5b9060005260206000209060090201905034816000018190555086868260020191906109c5929190612f1a565b5084848260030191906109d9929190612f1a565b5081887ff3590b1eedb9734b62503d4e241e43be9bf993459c4bc40f22bd1c54df07ee068b8a8a8a8a604051610a1395949392919061420e565b60405180910390a381925050509695505050505050565b60065481565b4260068190555060005b600154811015610c175760006003811115610a5857610a576145bd565b5b6002600083815260200190815260200160002060030160019054906101000a900460ff166003811115610a8e57610a8d6145bd565b5b148015610ab05750600260008281526020019081526020016000206001015442115b15610ac557610ac081600161277b565b610c04565b60016003811115610ad957610ad86145bd565b5b6002600083815260200190815260200160002060030160019054906101000a900460ff166003811115610b0f57610b0e6145bd565b5b148015610b315750600260008281526020019081526020016000206002015442115b15610b4657610b4181600261277b565b610c04565b60026003811115610b5a57610b596145bd565b5b6002600083815260200190815260200160002060030160019054906101000a900460ff166003811115610b9057610b8f6145bd565b5b148015610bf45750610e106002600083815260200190815260200160002060030160009054906101000a900460ff1660ff16610bcc91906143c7565b61ffff166002600083815260200190815260200160002060020154610bf1919061433a565b42115b15610c0357610c028161281a565b5b5b8080610c0f90614545565b915050610a3a565b505050565b6000801515600060149054906101000a900460ff1615151415610c4857610c47888888888642612c19565b5b600154905060018054610c5b919061433a565b600181905550336002600083815260200190815260200160002060000160006101000a81548173ffffffffffffffffffffffffffffffffffffffff021916908373ffffffffffffffffffffffffffffffffffffffff160217905550876002600083815260200190815260200160002060010181905550866002600083815260200190815260200160002060020181905550816002600083815260200190815260200160002060030160006101000a81548160ff021916908360ff16021790555060006002600083815260200190815260200160002060030160016101000a81548160ff02191690836003811115610d5557610d546145bd565b5b02179055508585600260008481526020019081526020016000206004019190610d7f929190612f1a565b508383600260008481526020019081526020016000206005019190610da5929190612f1a565b50600560003373ffffffffffffffffffffffffffffffffffffffff1673ffffffffffffffffffffffffffffffffffffffff1681526020019081526020016000208190806001815401808255809150506001900390600052602060002001600090919091909150553373ffffffffffffffffffffffffffffffffffffffff16817ff7c823cc2845ab92ea0ff85b83d01c97d1d94c431bd5608443620134b45f6ddb888888888e8e8a604051610e5f9796959493929190613e2c565b60405180910390a3979650505050505050565b60026020528060005260406000206000915090508060000160009054906101000a900473ffffffffffffffffffffffffffffffffffffffff16908060010154908060020154908060030160009054906101000a900460ff16908060030160019054906101000a900460ff1690806004018054610eed90614513565b80601f0160208091040260200160405190810160405280929190818152602001828054610f1990614513565b8015610f665780601f10610f3b57610100808354040283529160200191610f66565b820191906000526020600020905b815481529060010190602001808311610f4957829003601f168201915b505050505090806005018054610f7b90614513565b80601f0160208091040260200160405190810160405280929190818152602001828054610fa790614513565b8015610ff45780601f10610fc957610100808354040283529160200191610ff4565b820191906000526020600020905b815481529060010190602001808311610fd757829003601f168201915b5050505050908060060154905088565b6000606060008060149054906101000a900460ff168061105057507f00000000000000000000000000000000000000000000000000000000000000006006544261104e9190614403565b115b90506000806001541190506000805b6001548110156112815760038081111561107c5761107b6145bd565b5b6002600083815260200190815260200160002060030160019054906101000a900460ff1660038111156110b2576110b16145bd565b5b14156110bd5761126e565b600060038111156110d1576110d06145bd565b5b6002600083815260200190815260200160002060030160019054906101000a900460ff166003811115611107576111066145bd565b5b1480156111295750600260008281526020019081526020016000206001015442115b156111375760019150611281565b6001600381111561114b5761114a6145bd565b5b6002600083815260200190815260200160002060030160019054906101000a900460ff166003811115611181576111806145bd565b5b1480156111a35750600260008281526020019081526020016000206002015442115b156111b15760019150611281565b600260038111156111c5576111c46145bd565b5b6002600083815260200190815260200160002060030160019054906101000a900460ff1660038111156111fb576111fa6145bd565b5b14801561125f5750610e106002600083815260200190815260200160002060030160009054906101000a900460ff1660ff1661123791906143c7565b61ffff16600260008381526020019081526020016000206002015461125c919061433a565b42115b1561126d5760019150611281565b5b808061127990614545565b91505061105f565b5082801561128c5750815b80156112955750805b94505050509250929050565b6112a9612dde565b73ffffffffffffffffffffffffffffffffffffffff166112c76115d8565b73ffffffffffffffffffffffffffffffffffffffff161461131d576040517f08c379a000000000000000000000000000000000000000000000000000000000815260040161131490614091565b60405180910390fd5b6113276000612de6565b565b6005602052816000526040600020818154811061134557600080fd5b90600052602060002001600091509150505481565b3373ffffffffffffffffffffffffffffffffffffffff166002600085815260200190815260200160002060000160009054906101000a900473ffffffffffffffffffffffffffffffffffffffff1673ffffffffffffffffffffffffffffffffffffffff16146113fe576040517f08c379a00000000000000000000000000000000000000000000000000000000081526004016113f590613f11565b60405180910390fd5b60006003600085815260200190815260200160002083815481106114255761142461461b565b5b90600052602060002090600902016000015411611477576040517f08c379a000000000000000000000000000000000000000000000000000000000815260040161146e90613f91565b60405180910390fd5b60036000848152602001908152602001600020828154811061149c5761149b61461b565b5b9060005260206000209060090201600101819080600181540180825580915050600190039060005260206000200160009091909190916101000a81548173ffffffffffffffffffffffffffffffffffffffff021916908373ffffffffffffffffffffffffffffffffffffffff16021790555060016003600085815260200190815260200160002083815481106115355761153461461b565b5b906000526020600020906009020160060160008373ffffffffffffffffffffffffffffffffffffffff1673ffffffffffffffffffffffffffffffffffffffff16815260200190815260200160002060006101000a81548160ff02191690831515021790555081837f3efe798b21f0ba8d336dc0c9c4aac4d267f311b19e336e8ee8a7ee49629d51a7836040516115cb9190613c93565b60405180910390a3505050565b60008060009054906101000a900473ffffffffffffffffffffffffffffffffffffffff16905090565b60026003811115611615576116146145bd565b5b6002600086815260200190815260200160002060030160019054906101000a900460ff16600381111561164b5761164a6145bd565b5b1461168b576040517f08c379a000000000000000000000000000000000000000000000000000000000815260040161168290614051565b60405180910390fd5b600115156003600086815260200190815260200160002084815481106116b4576116b361461b565b5b906000526020600020906009020160060160003373ffffffffffffffffffffffffffffffffffffffff1673ffffffffffffffffffffffffffffffffffffffff16815260200190815260200160002060009054906101000a900460ff16151514611752576040517f08c379a000000000000000000000000000000000000000000000000000000000815260040161174990614031565b60405180910390fd5b6000151560036000868152602001908152602001600020848154811061177b5761177a61461b565b5b906000526020600020906009020160070160003373ffffffffffffffffffffffffffffffffffffffff1673ffffffffffffffffffffffffffffffffffffffff16815260200190815260200160002060009054906101000a900460ff16151514611819576040517f08c379a000000000000000000000000000000000000000000000000000000000815260040161181090613e91565b60405180910390fd5b60036000858152602001908152602001600020838154811061183e5761183d61461b565b5b9060005260206000209060090201600401805490508282905014611897576040517f08c379a000000000000000000000000000000000000000000000000000000000815260040161188e906140b1565b60405180910390fd5b60005b82829050811015611a365760008383838181106118ba576118b961461b565b5b90506020020160208101906118cf919061363d565b60ff161015611913576040517f08c379a000000000000000000000000000000000000000000000000000000000815260040161190a90614171565b60405180910390fd5b60058383838181106119285761192761461b565b5b905060200201602081019061193d919061363d565b60ff161115611981576040517f08c379a000000000000000000000000000000000000000000000000000000000815260040161197890614171565b60405180910390fd5b8282828181106119945761199361461b565b5b90506020020160208101906119a9919061363d565b6003600087815260200190815260200160002085815481106119ce576119cd61461b565b5b9060005260206000209060090201600501600083815260200190815260200160002060008282829054906101000a900460ff16611a0b9190614390565b92506101000a81548160ff021916908360ff1602179055508080611a2e90614545565b91505061189a565b506001600360008681526020019081526020016000208481548110611a5e57611a5d61461b565b5b906000526020600020906009020160070160003373ffffffffffffffffffffffffffffffffffffffff1673ffffffffffffffffffffffffffffffffffffffff16815260200190815260200160002060006101000a81548160ff02191690831515021790555050505050565b60046020528160005260406000208181548110611ae557600080fd5b9060005260206000209060050201600091509150508060000160009054906101000a900473ffffffffffffffffffffffffffffffffffffffff1690806001018054611b2f90614513565b80601f0160208091040260200160405190810160405280929190818152602001828054611b5b90614513565b8015611ba85780601f10611b7d57610100808354040283529160200191611ba8565b820191906000526020600020905b815481529060010190602001808311611b8b57829003601f168201915b505050505090806002018054611bbd90614513565b80601f0160208091040260200160405190810160405280929190818152602001828054611be990614513565b8015611c365780601f10611c0b57610100808354040283529160200191611c36565b820191906000526020600020905b815481529060010190602001808311611c1957829003601f168201915b5050505050908060030154905084565b611c4e612dde565b73ffffffffffffffffffffffffffffffffffffffff16611c6c6115d8565b73ffffffffffffffffffffffffffffffffffffffff1614611cc2576040517f08c379a0000000000000000000000000000000000000000000000000000000008152600401611cb990614091565b60405180910390fd5b6001600060146101000a81548160ff021916908315150217905550565b60016003811115611cf357611cf26145bd565b5b6002600089815260200190815260200160002060030160019054906101000a900460ff166003811115611d2957611d286145bd565b5b14611d69576040517f08c379a0000000000000000000000000000000000000000000000000000000008152600401611d60906140d1565b60405180910390fd5b6004868690501015611db0576040517f08c379a0000000000000000000000000000000000000000000000000000000008152600401611da790613f71565b60405180910390fd5b6001828290501015611df7576040517f08c379a0000000000000000000000000000000000000000000000000000000008152600401611dee90613eb1565b60405180910390fd5b60005b82829050811015611e89576003600089815260200190815260200160002080549050838383818110611e2f57611e2e61461b565b5b9050602002013510611e76576040517f08c379a0000000000000000000000000000000000000000000000000000000008152600401611e6d90613f31565b60405180910390fd5b8080611e8190614545565b915050611dfa565b5060006004600089815260200190815260200160002080549050905060046000898152602001908152602001600020600181600181540180825580915050039060005260206000209050506000600460008a81526020019081526020016000208281548110611efb57611efa61461b565b5b90600052602060002090600502019050338160000160006101000a81548173ffffffffffffffffffffffffffffffffffffffff021916908373ffffffffffffffffffffffffffffffffffffffff1602179055508787826001019190611f61929190612f1a565b508585826002019190611f75929190612f1a565b5088816003018190555060005b848490508110156120a25781600401858583818110611fa457611fa361461b565b5b905060200201359080600181540180825580915050600190039060005260206000200160009091909190915055600360008b8152602001908152602001600020858583818110611ff757611ff661461b565b5b905060200201358154811061200f5761200e61461b565b5b906000526020600020906009020160040183908060018154018082558091505060019003906000526020600020016000909190919091505584848281811061205a5761205961461b565b5b905060200201358a847fe44d44a848e1202df17250e581d3a6d65ba9959ee9c085697455b740e4f59c3160405160405180910390a4808061209a90614545565b915050611f82565b503373ffffffffffffffffffffffffffffffffffffffff1689837f2ebd14140307d4eec977e4f9de8adeb62be369102c52a6895599f1aabd9b6c148b8b6040516120ed929190613e08565b60405180910390a4505050505050505050565b6060600560008373ffffffffffffffffffffffffffffffffffffffff1673ffffffffffffffffffffffffffffffffffffffff16815260200190815260200160002080548060200260200160405190810160405280929190818152602001828054801561218b57602002820191906000526020600020905b815481526020019060010190808311612177575b50505050509050919050565b7f000000000000000000000000000000000000000000000000000000000000000081565b3373ffffffffffffffffffffffffffffffffffffffff16600260008a815260200190815260200160002060000160009054906101000a900473ffffffffffffffffffffffffffffffffffffffff1673ffffffffffffffffffffffffffffffffffffffff161461225f576040517f08c379a000000000000000000000000000000000000000000000000000000000815260040161225690614071565b60405180910390fd5b610e1042600260008b8152602001908152602001600020600101546122849190614403565b116122c4576040517f08c379a00000000000000000000000000000000000000000000000000000000081526004016122bb90614111565b60405180910390fd5b600060038111156122d8576122d76145bd565b5b600260008a815260200190815260200160002060030160019054906101000a900460ff16600381111561230e5761230d6145bd565b5b1461234e576040517f08c379a000000000000000000000000000000000000000000000000000000000815260040161234590613f51565b60405180910390fd5b61235c878787878542612c19565b86600260008a81526020019081526020016000206001018190555085600260008a8152602001908152602001600020600201819055508484600260008b815260200190815260200160002060040191906123b7929190612f1a565b508282600260008b815260200190815260200160002060050191906123dd929190612f1a565b5080600260008a815260200190815260200160002060030160006101000a81548160ff021916908360ff160217905550877f2406bb451705c8be83194cf2d0a2dd0e3647d9ea2308183dbbd3b66ffe271e6b868686868c8d886040516124499796959493929190613e2c565b60405180910390a25050505050505050565b612463612dde565b73ffffffffffffffffffffffffffffffffffffffff166124816115d8565b73ffffffffffffffffffffffffffffffffffffffff16146124d7576040517f08c379a00000000000000000000000000000000000000000000000000000000081526004016124ce90614091565b60405180910390fd5b60008060146101000a81548160ff021916908315150217905550565b6124fb612dde565b73ffffffffffffffffffffffffffffffffffffffff166125196115d8565b73ffffffffffffffffffffffffffffffffffffffff161461256f576040517f08c379a000000000000000000000000000000000000000000000000000000000815260040161256690614091565b60405180910390fd5b600073ffffffffffffffffffffffffffffffffffffffff168173ffffffffffffffffffffffffffffffffffffffff1614156125df576040517f08c379a00000000000000000000000000000000000000000000000000000000081526004016125d690613ed1565b60405180910390fd5b6125e881612de6565b50565b6003602052816000526040600020818154811061260757600080fd5b90600052602060002090600902016000915091505080600001549080600201805461263190614513565b80601f016020809104026020016040519081016040528092919081815260200182805461265d90614513565b80156126aa5780601f1061267f576101008083540402835291602001916126aa565b820191906000526020600020905b81548152906001019060200180831161268d57829003601f168201915b5050505050908060030180546126bf90614513565b80601f01602080910402602001604051908101604052809291908181526020018280546126eb90614513565b80156127385780601f1061270d57610100808354040283529160200191612738565b820191906000526020600020905b81548152906001019060200180831161271b57829003601f168201915b5050505050908060080160009054906101000a900473ffffffffffffffffffffffffffffffffffffffff16908060080160149054906101000a900460ff16905085565b817f0e84e0666f369b5893de172e41bbc8d6e160ab211eb9765214e1939732144f066002600085815260200190815260200160002060030160019054906101000a900460ff16836040516127d0929190613ddf565b60405180910390a2806002600084815260200190815260200160002060030160016101000a81548160ff02191690836003811115612811576128106145bd565b5b02179055505050565b60005b6003600083815260200190815260200160002080549050811015612c0a5760008060005b6003600086815260200190815260200160002084815481106128665761286561461b565b5b90600052602060002090600902016004018054905081101561295257826003600087815260200190815260200160002085815481106128a8576128a761461b565b5b9060005260206000209060090201600501600083815260200190815260200160002060009054906101000a900460ff1660ff16111561293f578091506003600086815260200190815260200160002084815481106129095761290861461b565b5b9060005260206000209060090201600501600082815260200190815260200160002060009054906101000a900460ff1660ff1692505b808061294a90614545565b915050612841565b50600160036000868152602001908152602001600020848154811061297a5761297961461b565b5b906000526020600020906009020160080160146101000a81548160ff021916908315150217905550600460008581526020019081526020016000206003600086815260200190815260200160002084815481106129da576129d961461b565b5b906000526020600020906009020160040182815481106129fd576129fc61461b565b5b906000526020600020015481548110612a1957612a1861461b565b5b906000526020600020906005020160000160009054906101000a900473ffffffffffffffffffffffffffffffffffffffff16600360008681526020019081526020016000208481548110612a7057612a6f61461b565b5b906000526020600020906009020160080160006101000a81548173ffffffffffffffffffffffffffffffffffffffff021916908373ffffffffffffffffffffffffffffffffffffffff160217905550600360008581526020019081526020016000208381548110612ae457612ae361461b565b5b906000526020600020906009020160080160009054906101000a900473ffffffffffffffffffffffffffffffffffffffff1673ffffffffffffffffffffffffffffffffffffffff166108fc600360008781526020019081526020016000208581548110612b5457612b5361461b565b5b9060005260206000209060090201600001549081150290604051600060405180830381858888f19350505050158015612b91573d6000803e3d6000fd5b50600360008581526020019081526020016000208381548110612bb757612bb661461b565b5b906000526020600020906009020160000154600260008681526020019081526020016000206006016000828254612bee9190614403565b9250508190555050508080612c0290614545565b91505061281d565b50612c1681600361277b565b50565b620151808686612c299190614403565b11612c69576040517f08c379a0000000000000000000000000000000000000000000000000000000008152600401612c60906140f1565b60405180910390fd5b620151808187612c799190614403565b1015612cba576040517f08c379a0000000000000000000000000000000000000000000000000000000008152600401612cb190614151565b60405180910390fd5b60188260ff161015612d01576040517f08c379a0000000000000000000000000000000000000000000000000000000008152600401612cf890613ff1565b60405180910390fd5b60a88260ff161115612d48576040517f08c379a0000000000000000000000000000000000000000000000000000000008152600401612d3f90613fb1565b60405180910390fd5b6008848490501015612d8f576040517f08c379a0000000000000000000000000000000000000000000000000000000008152600401612d8690614191565b60405180910390fd5b6064848490501115612dd6576040517f08c379a0000000000000000000000000000000000000000000000000000000008152600401612dcd90614011565b60405180910390fd5b505050505050565b600033905090565b60008060009054906101000a900473ffffffffffffffffffffffffffffffffffffffff169050816000806101000a81548173ffffffffffffffffffffffffffffffffffffffff021916908373ffffffffffffffffffffffffffffffffffffffff1602179055508173ffffffffffffffffffffffffffffffffffffffff168173ffffffffffffffffffffffffffffffffffffffff167f8be0079c531659141344cd1fd0a4f28419497f9722a3daafe3b4186f6b6457e060405160405180910390a35050565b604051806101000160405280600073ffffffffffffffffffffffffffffffffffffffff1681526020016000815260200160008152602001600060ff16815260200160006003811115612eff57612efe6145bd565b5b81526020016060815260200160608152602001600081525090565b828054612f2690614513565b90600052602060002090601f016020900481019282612f485760008555612f8f565b82601f10612f6157803560ff1916838001178555612f8f565b82800160010185558215612f8f579182015b82811115612f8e578235825591602001919060010190612f73565b5b509050612f9c9190612fa0565b5090565b5b80821115612fb9576000816000905550600101612fa1565b5090565b600081359050612fcc81614e1c565b92915050565b60008083601f840112612fe857612fe761464f565b5b8235905067ffffffffffffffff8111156130055761300461464a565b5b60208301915083602082028301111561302157613020614654565b5b9250929050565b60008083601f84011261303e5761303d61464f565b5b8235905067ffffffffffffffff81111561305b5761305a61464a565b5b60208301915083602082028301111561307757613076614654565b5b9250929050565b60008083601f8401126130945761309361464f565b5b8235905067ffffffffffffffff8111156130b1576130b061464a565b5b6020830191508360018202830111156130cd576130cc614654565b5b9250929050565b60008083601f8401126130ea576130e961464f565b5b8235905067ffffffffffffffff8111156131075761310661464a565b5b60208301915083600182028301111561312357613122614654565b5b9250929050565b60008135905061313981614e33565b92915050565b60008135905061314e81614e4a565b92915050565b60006020828403121561316a5761316961465e565b5b600061317884828501612fbd565b91505092915050565b600080604083850312156131985761319761465e565b5b60006131a685828601612fbd565b92505060206131b78582860161312a565b9150509250929050565b600080602083850312156131d8576131d761465e565b5b600083013567ffffffffffffffff8111156131f6576131f5614659565b5b6132028582860161307e565b92509250509250929050565b6000602082840312156132245761322361465e565b5b60006132328482850161312a565b91505092915050565b60008060008060008060006080888a03121561325a5761325961465e565b5b60006132688a828b0161312a565b975050602088013567ffffffffffffffff81111561328957613288614659565b5b6132958a828b016130d4565b9650965050604088013567ffffffffffffffff8111156132b8576132b7614659565b5b6132c48a828b016130d4565b9450945050606088013567ffffffffffffffff8111156132e7576132e6614659565b5b6132f38a828b01612fd2565b925092505092959891949750929550565b6000806040838503121561331b5761331a61465e565b5b60006133298582860161312a565b925050602061333a8582860161312a565b9150509250929050565b60008060006060848603121561335d5761335c61465e565b5b600061336b8682870161312a565b935050602061337c8682870161312a565b925050604061338d86828701612fbd565b9150509250925092565b600080600080606085870312156133b1576133b061465e565b5b60006133bf8782880161312a565b94505060206133d08782880161312a565b935050604085013567ffffffffffffffff8111156133f1576133f0614659565b5b6133fd87828801613028565b925092505092959194509250565b600080600080600080608087890312156134285761342761465e565b5b600061343689828a0161312a565b965050602061344789828a0161312a565b955050604087013567ffffffffffffffff81111561346857613467614659565b5b61347489828a016130d4565b9450945050606087013567ffffffffffffffff81111561349757613496614659565b5b6134a389828a016130d4565b92509250509295509295509295565b600080600080600080600060a0888a0312156134d1576134d061465e565b5b60006134df8a828b0161312a565b97505060206134f08a828b0161312a565b965050604088013567ffffffffffffffff81111561351157613510614659565b5b61351d8a828b016130d4565b9550955050606088013567ffffffffffffffff8111156135405761353f614659565b5b61354c8a828b016130d4565b9350935050608061355f8a828b0161313f565b91505092959891949750929550565b60008060008060008060008060c0898b03121561358e5761358d61465e565b5b600061359c8b828c0161312a565b98505060206135ad8b828c0161312a565b97505060406135be8b828c0161312a565b965050606089013567ffffffffffffffff8111156135df576135de614659565b5b6135eb8b828c016130d4565b9550955050608089013567ffffffffffffffff81111561360e5761360d614659565b5b61361a8b828c016130d4565b935093505060a061362d8b828c0161313f565b9150509295985092959890939650565b6000602082840312156136535761365261465e565b5b60006136618482850161313f565b91505092915050565b60006136768383613c57565b60208301905092915050565b61368b81614449565b82525050565b61369a81614437565b82525050565b6136a981614437565b82525050565b60006136ba826142c8565b6136c481856142f6565b93506136cf836142b8565b8060005b838110156137005781516136e7888261366a565b97506136f2836142e9565b9250506001810190506136d3565b5085935050505092915050565b6137168161445b565b82525050565b6000613727826142d3565b6137318185614307565b93506137418185602086016144e0565b61374a81614663565b840191505092915050565b61375e816144bf565b82525050565b61376d816144bf565b82525050565b600061377f8385614329565b935061378c8385846144d1565b61379583614663565b840190509392505050565b60006137ab826142de565b6137b58185614318565b93506137c58185602086016144e0565b6137ce81614663565b840191505092915050565b60006137e4826142de565b6137ee8185614329565b93506137fe8185602086016144e0565b61380781614663565b840191505092915050565b600061381f602583614329565b915061382a82614674565b604082019050919050565b6000613842602583614329565b915061384d826146c3565b604082019050919050565b6000613865602683614329565b915061387082614712565b604082019050919050565b6000613888602a83614329565b915061389382614761565b604082019050919050565b60006138ab602a83614329565b91506138b6826147b0565b604082019050919050565b60006138ce603083614329565b91506138d9826147ff565b604082019050919050565b60006138f1603483614329565b91506138fc8261484e565b604082019050919050565b6000613914602d83614329565b915061391f8261489d565b604082019050919050565b6000613937600f83614329565b9150613942826148ec565b602082019050919050565b600061395a603983614329565b915061396582614915565b604082019050919050565b600061397d602283614329565b915061398882614964565b604082019050919050565b60006139a0603083614329565b91506139ab826149b3565b604082019050919050565b60006139c3602d83614329565b91506139ce82614a02565b604082019050919050565b60006139e6602283614329565b91506139f182614a51565b604082019050919050565b6000613a09602383614329565b9150613a1482614aa0565b604082019050919050565b6000613a2c603283614329565b9150613a3782614aef565b604082019050919050565b6000613a4f602083614329565b9150613a5a82614b3e565b602082019050919050565b6000613a72602c83614329565b9150613a7d82614b67565b604082019050919050565b6000613a95603283614329565b9150613aa082614bb6565b604082019050919050565b6000613ab8602583614329565b9150613ac382614c05565b604082019050919050565b6000613adb603e83614329565b9150613ae682614c54565b604082019050919050565b6000613afe603583614329565b9150613b0982614ca3565b604082019050919050565b6000613b21603983614329565b9150613b2c82614cf2565b604082019050919050565b6000613b44601e83614329565b9150613b4f82614d41565b602082019050919050565b6000613b67602c83614329565b9150613b7282614d6a565b604082019050919050565b6000613b8a602883614329565b9150613b9582614db9565b604082019050919050565b600061010083016000830151613bb96000860182613691565b506020830151613bcc6020860182613c57565b506040830151613bdf6040860182613c57565b506060830151613bf26060860182613c75565b506080830151613c056080860182613755565b5060a083015184820360a0860152613c1d82826137a0565b91505060c083015184820360c0860152613c3782826137a0565b91505060e0830151613c4c60e0860182613c57565b508091505092915050565b613c60816144a8565b82525050565b613c6f816144a8565b82525050565b613c7e816144b2565b82525050565b613c8d816144b2565b82525050565b6000602082019050613ca860008301846136a0565b92915050565b6000608082019050613cc36000830187613682565b8181036020830152613cd581866137d9565b90508181036040830152613ce981856137d9565b9050613cf86060830184613c66565b95945050505050565b600061010082019050613d17600083018b6136a0565b613d24602083018a613c66565b613d316040830189613c66565b613d3e6060830188613c84565b613d4b6080830187613764565b81810360a0830152613d5d81866137d9565b905081810360c0830152613d7181856137d9565b9050613d8060e0830184613c66565b9998505050505050505050565b60006020820190508181036000830152613da781846136af565b905092915050565b6000604082019050613dc4600083018561370d565b8181036020830152613dd6818461371c565b90509392505050565b6000604082019050613df46000830185613764565b613e016020830184613764565b9392505050565b60006020820190508181036000830152613e23818486613773565b90509392505050565b600060a0820190508181036000830152613e4781898b613773565b90508181036020830152613e5c818789613773565b9050613e6b6040830186613c66565b613e786060830185613c66565b613e856080830184613c84565b98975050505050505050565b60006020820190508181036000830152613eaa81613812565b9050919050565b60006020820190508181036000830152613eca81613835565b9050919050565b60006020820190508181036000830152613eea81613858565b9050919050565b60006020820190508181036000830152613f0a8161387b565b9050919050565b60006020820190508181036000830152613f2a8161389e565b9050919050565b60006020820190508181036000830152613f4a816138c1565b9050919050565b60006020820190508181036000830152613f6a816138e4565b9050919050565b60006020820190508181036000830152613f8a81613907565b9050919050565b60006020820190508181036000830152613faa8161392a565b9050919050565b60006020820190508181036000830152613fca8161394d565b9050919050565b60006020820190508181036000830152613fea81613970565b9050919050565b6000602082019050818103600083015261400a81613993565b9050919050565b6000602082019050818103600083015261402a816139b6565b9050919050565b6000602082019050818103600083015261404a816139d9565b9050919050565b6000602082019050818103600083015261406a816139fc565b9050919050565b6000602082019050818103600083015261408a81613a1f565b9050919050565b600060208201905081810360008301526140aa81613a42565b9050919050565b600060208201905081810360008301526140ca81613a65565b9050919050565b600060208201905081810360008301526140ea81613a88565b9050919050565b6000602082019050818103600083015261410a81613aab565b9050919050565b6000602082019050818103600083015261412a81613ace565b9050919050565b6000602082019050818103600083015261414a81613af1565b9050919050565b6000602082019050818103600083015261416a81613b14565b9050919050565b6000602082019050818103600083015261418a81613b37565b9050919050565b600060208201905081810360008301526141aa81613b5a565b9050919050565b600060208201905081810360008301526141ca81613b7d565b9050919050565b600060208201905081810360008301526141eb8184613ba0565b905092915050565b60006020820190506142086000830184613c66565b92915050565b60006060820190506142236000830188613c66565b8181036020830152614236818688613773565b9050818103604083015261424b818486613773565b90509695505050505050565b600060a08201905061426c6000830188613c66565b818103602083015261427e81876137d9565b9050818103604083015261429281866137d9565b90506142a16060830185613682565b6142ae608083018461370d565b9695505050505050565b6000819050602082019050919050565b600081519050919050565b600081519050919050565b600081519050919050565b6000602082019050919050565b600082825260208201905092915050565b600082825260208201905092915050565b600082825260208201905092915050565b600082825260208201905092915050565b6000614345826144a8565b9150614350836144a8565b9250827fffffffffffffffffffffffffffffffffffffffffffffffffffffffffffffffff038211156143855761438461458e565b5b828201905092915050565b600061439b826144b2565b91506143a6836144b2565b92508260ff038211156143bc576143bb61458e565b5b828201905092915050565b60006143d28261447a565b91506143dd8361447a565b92508161ffff04831182151516156143f8576143f761458e565b5b828202905092915050565b600061440e826144a8565b9150614419836144a8565b92508282101561442c5761442b61458e565b5b828203905092915050565b600061444282614488565b9050919050565b600061445482614488565b9050919050565b60008115159050919050565b600081905061447582614e08565b919050565b600061ffff82169050919050565b600073ffffffffffffffffffffffffffffffffffffffff82169050919050565b6000819050919050565b600060ff82169050919050565b60006144ca82614467565b9050919050565b82818337600083830152505050565b60005b838110156144fe5780820151818401526020810190506144e3565b8381111561450d576000848401525b50505050565b6000600282049050600182168061452b57607f821691505b6020821081141561453f5761453e6145ec565b5b50919050565b6000614550826144a8565b91507fffffffffffffffffffffffffffffffffffffffffffffffffffffffffffffffff8214156145835761458261458e565b5b600182019050919050565b7f4e487b7100000000000000000000000000000000000000000000000000000000600052601160045260246000fd5b7f4e487b7100000000000000000000000000000000000000000000000000000000600052602160045260246000fd5b7f4e487b7100000000000000000000000000000000000000000000000000000000600052602260045260246000fd5b7f4e487b7100000000000000000000000000000000000000000000000000000000600052603260045260246000fd5b600080fd5b600080fd5b600080fd5b600080fd5b600080fd5b6000601f19601f8301169050919050565b7f596f75206861766520616c726561647920766f74656420666f7220746869732060008201527f7072697a65000000000000000000000000000000000000000000000000000000602082015250565b7f596f75206d757374206170706c7920666f72206174206c65617374206f6e652060008201527f7072697a65000000000000000000000000000000000000000000000000000000602082015250565b7f4f776e61626c653a206e6577206f776e657220697320746865207a65726f206160008201527f6464726573730000000000000000000000000000000000000000000000000000602082015250565b7f4f6e6c79206861636b6174686f6e2773206f7267616e697a65722063616e206160008201527f64642061207072697a6500000000000000000000000000000000000000000000602082015250565b7f4f6e6c79206861636b6174686f6e2773206f7267616e697a65722063616e206160008201527f64642061206a7564676500000000000000000000000000000000000000000000602082015250565b7f4f6e65206f6620746865207072697a657320796f75206170706c69656420666f60008201527f7220646f6573206e6f7420657869737400000000000000000000000000000000602082015250565b7f4861636b6174686f6e206d657461646174612063616e2774206368616e67652060008201527f6166746572206974206861732073746172746564000000000000000000000000602082015250565b7f5375626d697373696f6e206e616d65206d757374206265206174206c6561737460008201527f2034206368617261637465727300000000000000000000000000000000000000602082015250565b7f5072697a65206e6f7420666f756e640000000000000000000000000000000000600082015250565b7f4a756467696e6720706572696f64206d757374206e6f74206265206c6f6e676560008201527f72207468616e20372064617973202831363820686f7572732900000000000000602082015250565b7f4d696e696d756d207072697a652072657761726420697320302e30303031204560008201527f5448000000000000000000000000000000000000000000000000000000000000602082015250565b7f4a756467696e6720706572696f64206d757374206265206174206c656173742060008201527f31206461792028323420686f7572732900000000000000000000000000000000602082015250565b7f4861636b6174686f6e206e616d65206d757374206265206174206d6f7374203160008201527f3030206368617261637465727300000000000000000000000000000000000000602082015250565b7f596f7520617265206e6f742074686973206861636b6174686f6e2773206a756460008201527f6765000000000000000000000000000000000000000000000000000000000000602082015250565b7f4861636b6174686f6e206973206e6f7420696e2061206a756467696e6720737460008201527f6167650000000000000000000000000000000000000000000000000000000000602082015250565b7f4f6e6c79206861636b6174686f6e2773206f7267616e697a65722063616e206360008201527f68616e676520697473206d657461646174610000000000000000000000000000602082015250565b7f4f776e61626c653a2063616c6c6572206973206e6f7420746865206f776e6572600082015250565b7f596f75206d7573742070726f7669646520612073636f726520666f722065616360008201527f68207375626d697373696f6e0000000000000000000000000000000000000000602082015250565b7f4861636b6174686f6e20646f65736e277420616363657074207375626d69737360008201527f696f6e7320617420746869732073746167650000000000000000000000000000602082015250565b7f4861636b6174686f6e206d757374206265206174206c6561737420312064617960008201527f206c6f6e67000000000000000000000000000000000000000000000000000000602082015250565b7f4861636b6174686f6e206d657461646174612063616e206265206368616e676560008201527f6420757020756e74696c203120686f7572206265666f72652073746172740000602082015250565b7f43616e2774206164642061207072697a6520746f20616e206f6e676f696e672060008201527f6f722066696e6973686564206861636b6174686f6e0000000000000000000000602082015250565b7f4861636b6174686f6e2073746172742064617465206d7573742062652061742060008201527f6c6561737420312064617920696e207468652066757475726500000000000000602082015250565b7f53636f726573206d757374206265206265747765656e203020616e6420350000600082015250565b7f4861636b6174686f6e206e616d65206d757374206265206174206c656173742060008201527f3820636861726163746572730000000000000000000000000000000000000000602082015250565b7f5072697a65206e616d65206d757374206265206174206c65617374203820636860008201527f6172616374657273000000000000000000000000000000000000000000000000602082015250565b60048110614e1957614e186145bd565b5b50565b614e2581614437565b8114614e3057600080fd5b50565b614e3c816144a8565b8114614e4757600080fd5b50565b614e53816144b2565b8114614e5e57600080fd5b5056fea264697066735822122002b6d2eabd46810640ce6fe415ad21aa33f2b2fc4c8a7f45ea80602bc8fcf9ef64736f6c63430008070033",
  "devdoc": {
    "kind": "dev",
    "methods": {
      "owner()": {
        "details": "Returns the address of the current owner."
      },
      "renounceOwnership()": {
        "details": "Leaves the contract without owner. It will not be possible to call `onlyOwner` functions anymore. Can only be called by the current owner. NOTE: Renouncing ownership will leave the contract without an owner, thereby removing any functionality that is only available to the owner."
      },
      "transferOwnership(address)": {
        "details": "Transfers ownership of the contract to a new account (`newOwner`). Can only be called by the current owner."
      }
    },
    "version": 1
  },
  "userdoc": {
    "kind": "user",
    "methods": {},
    "version": 1
  },
  "storageLayout": {
    "storage": [
      {
        "astId": 7,
        "contract": "contracts/Hacka.sol:Hacka",
        "label": "_owner",
        "offset": 0,
        "slot": "0",
        "type": "t_address"
      },
      {
        "astId": 150,
        "contract": "contracts/Hacka.sol:Hacka",
        "label": "s_demoMode",
        "offset": 20,
        "slot": "0",
        "type": "t_bool"
      },
      {
        "astId": 153,
        "contract": "contracts/Hacka.sol:Hacka",
        "label": "s_counter",
        "offset": 0,
        "slot": "1",
        "type": "t_uint256"
      },
      {
        "astId": 222,
        "contract": "contracts/Hacka.sol:Hacka",
        "label": "s_hackathons",
        "offset": 0,
        "slot": "2",
        "type": "t_mapping(t_uint256,t_struct(HackathonMetadata)176_storage)"
      },
      {
        "astId": 228,
        "contract": "contracts/Hacka.sol:Hacka",
        "label": "s_prizes",
        "offset": 0,
        "slot": "3",
        "type": "t_mapping(t_uint256,t_array(t_struct(HackathonPrize)217_storage)dyn_storage)"
      },
      {
        "astId": 234,
        "contract": "contracts/Hacka.sol:Hacka",
        "label": "s_submissions",
        "offset": 0,
        "slot": "4",
        "type": "t_mapping(t_uint256,t_array(t_struct(HackathonSubmission)188_storage)dyn_storage)"
      },
      {
        "astId": 239,
        "contract": "contracts/Hacka.sol:Hacka",
        "label": "s_organizerHackathons",
        "offset": 0,
        "slot": "5",
        "type": "t_mapping(t_address,t_array(t_uint256)dyn_storage)"
      },
      {
        "astId": 322,
        "contract": "contracts/Hacka.sol:Hacka",
        "label": "s_lastTimeStamp",
        "offset": 0,
        "slot": "6",
        "type": "t_uint256"
      }
    ],
    "types": {
      "t_address": {
        "encoding": "inplace",
        "label": "address",
        "numberOfBytes": "20"
      },
      "t_address_payable": {
        "encoding": "inplace",
        "label": "address payable",
        "numberOfBytes": "20"
      },
      "t_array(t_address)dyn_storage": {
        "base": "t_address",
        "encoding": "dynamic_array",
        "label": "address[]",
        "numberOfBytes": "32"
      },
      "t_array(t_struct(HackathonPrize)217_storage)dyn_storage": {
        "base": "t_struct(HackathonPrize)217_storage",
        "encoding": "dynamic_array",
        "label": "struct Hacka.HackathonPrize[]",
        "numberOfBytes": "32"
      },
      "t_array(t_struct(HackathonSubmission)188_storage)dyn_storage": {
        "base": "t_struct(HackathonSubmission)188_storage",
        "encoding": "dynamic_array",
        "label": "struct Hacka.HackathonSubmission[]",
        "numberOfBytes": "32"
      },
      "t_array(t_uint256)dyn_storage": {
        "base": "t_uint256",
        "encoding": "dynamic_array",
        "label": "uint256[]",
        "numberOfBytes": "32"
      },
      "t_bool": {
        "encoding": "inplace",
        "label": "bool",
        "numberOfBytes": "1"
      },
      "t_enum(HackathonStage)158": {
        "encoding": "inplace",
        "label": "enum Hacka.HackathonStage",
        "numberOfBytes": "1"
      },
      "t_mapping(t_address,t_array(t_uint256)dyn_storage)": {
        "encoding": "mapping",
        "key": "t_address",
        "label": "mapping(address => uint256[])",
        "numberOfBytes": "32",
        "value": "t_array(t_uint256)dyn_storage"
      },
      "t_mapping(t_address,t_bool)": {
        "encoding": "mapping",
        "key": "t_address",
        "label": "mapping(address => bool)",
        "numberOfBytes": "32",
        "value": "t_bool"
      },
      "t_mapping(t_uint256,t_array(t_struct(HackathonPrize)217_storage)dyn_storage)": {
        "encoding": "mapping",
        "key": "t_uint256",
        "label": "mapping(uint256 => struct Hacka.HackathonPrize[])",
        "numberOfBytes": "32",
        "value": "t_array(t_struct(HackathonPrize)217_storage)dyn_storage"
      },
      "t_mapping(t_uint256,t_array(t_struct(HackathonSubmission)188_storage)dyn_storage)": {
        "encoding": "mapping",
        "key": "t_uint256",
        "label": "mapping(uint256 => struct Hacka.HackathonSubmission[])",
        "numberOfBytes": "32",
        "value": "t_array(t_struct(HackathonSubmission)188_storage)dyn_storage"
      },
      "t_mapping(t_uint256,t_struct(HackathonMetadata)176_storage)": {
        "encoding": "mapping",
        "key": "t_uint256",
        "label": "mapping(uint256 => struct Hacka.HackathonMetadata)",
        "numberOfBytes": "32",
        "value": "t_struct(HackathonMetadata)176_storage"
      },
      "t_mapping(t_uint256,t_uint8)": {
        "encoding": "mapping",
        "key": "t_uint256",
        "label": "mapping(uint256 => uint8)",
        "numberOfBytes": "32",
        "value": "t_uint8"
      },
      "t_string_storage": {
        "encoding": "bytes",
        "label": "string",
        "numberOfBytes": "32"
      },
      "t_struct(HackathonMetadata)176_storage": {
        "encoding": "inplace",
        "label": "struct Hacka.HackathonMetadata",
        "members": [
          {
            "astId": 160,
            "contract": "contracts/Hacka.sol:Hacka",
            "label": "organizer",
            "offset": 0,
            "slot": "0",
            "type": "t_address"
          },
          {
            "astId": 162,
            "contract": "contracts/Hacka.sol:Hacka",
            "label": "timestampStart",
            "offset": 0,
            "slot": "1",
            "type": "t_uint256"
          },
          {
            "astId": 164,
            "contract": "contracts/Hacka.sol:Hacka",
            "label": "timestampEnd",
            "offset": 0,
            "slot": "2",
            "type": "t_uint256"
          },
          {
            "astId": 166,
            "contract": "contracts/Hacka.sol:Hacka",
            "label": "judgingPeriod",
            "offset": 0,
            "slot": "3",
            "type": "t_uint8"
          },
          {
            "astId": 169,
            "contract": "contracts/Hacka.sol:Hacka",
            "label": "stage",
            "offset": 1,
            "slot": "3",
            "type": "t_enum(HackathonStage)158"
          },
          {
            "astId": 171,
            "contract": "contracts/Hacka.sol:Hacka",
            "label": "name",
            "offset": 0,
            "slot": "4",
            "type": "t_string_storage"
          },
          {
            "astId": 173,
            "contract": "contracts/Hacka.sol:Hacka",
            "label": "url",
            "offset": 0,
            "slot": "5",
            "type": "t_string_storage"
          },
          {
            "astId": 175,
            "contract": "contracts/Hacka.sol:Hacka",
            "label": "balance",
            "offset": 0,
            "slot": "6",
            "type": "t_uint256"
          }
        ],
        "numberOfBytes": "224"
      },
      "t_struct(HackathonPrize)217_storage": {
        "encoding": "inplace",
        "label": "struct Hacka.HackathonPrize",
        "members": [
          {
            "astId": 190,
            "contract": "contracts/Hacka.sol:Hacka",
            "label": "reward",
            "offset": 0,
            "slot": "0",
            "type": "t_uint256"
          },
          {
            "astId": 193,
            "contract": "contracts/Hacka.sol:Hacka",
            "label": "judges",
            "offset": 0,
            "slot": "1",
            "type": "t_array(t_address)dyn_storage"
          },
          {
            "astId": 195,
            "contract": "contracts/Hacka.sol:Hacka",
            "label": "name",
            "offset": 0,
            "slot": "2",
            "type": "t_string_storage"
          },
          {
            "astId": 197,
            "contract": "contracts/Hacka.sol:Hacka",
            "label": "description",
            "offset": 0,
            "slot": "3",
            "type": "t_string_storage"
          },
          {
            "astId": 200,
            "contract": "contracts/Hacka.sol:Hacka",
            "label": "submissions",
            "offset": 0,
            "slot": "4",
            "type": "t_array(t_uint256)dyn_storage"
          },
          {
            "astId": 204,
            "contract": "contracts/Hacka.sol:Hacka",
            "label": "submissionScores",
            "offset": 0,
            "slot": "5",
            "type": "t_mapping(t_uint256,t_uint8)"
          },
          {
            "astId": 208,
            "contract": "contracts/Hacka.sol:Hacka",
            "label": "isJudge",
            "offset": 0,
            "slot": "6",
            "type": "t_mapping(t_address,t_bool)"
          },
          {
            "astId": 212,
            "contract": "contracts/Hacka.sol:Hacka",
            "label": "alreadyVoted",
            "offset": 0,
            "slot": "7",
            "type": "t_mapping(t_address,t_bool)"
          },
          {
            "astId": 214,
            "contract": "contracts/Hacka.sol:Hacka",
            "label": "winner",
            "offset": 0,
            "slot": "8",
            "type": "t_address_payable"
          },
          {
            "astId": 216,
            "contract": "contracts/Hacka.sol:Hacka",
            "label": "finalized",
            "offset": 20,
            "slot": "8",
            "type": "t_bool"
          }
        ],
        "numberOfBytes": "288"
      },
      "t_struct(HackathonSubmission)188_storage": {
        "encoding": "inplace",
        "label": "struct Hacka.HackathonSubmission",
        "members": [
          {
            "astId": 178,
            "contract": "contracts/Hacka.sol:Hacka",
            "label": "participant",
            "offset": 0,
            "slot": "0",
            "type": "t_address_payable"
          },
          {
            "astId": 180,
            "contract": "contracts/Hacka.sol:Hacka",
            "label": "name",
            "offset": 0,
            "slot": "1",
            "type": "t_string_storage"
          },
          {
            "astId": 182,
            "contract": "contracts/Hacka.sol:Hacka",
            "label": "description",
            "offset": 0,
            "slot": "2",
            "type": "t_string_storage"
          },
          {
            "astId": 184,
            "contract": "contracts/Hacka.sol:Hacka",
            "label": "hackathonId",
            "offset": 0,
            "slot": "3",
            "type": "t_uint256"
          },
          {
            "astId": 187,
            "contract": "contracts/Hacka.sol:Hacka",
            "label": "prizes",
            "offset": 0,
            "slot": "4",
            "type": "t_array(t_uint256)dyn_storage"
          }
        ],
        "numberOfBytes": "160"
      },
      "t_uint256": {
        "encoding": "inplace",
        "label": "uint256",
        "numberOfBytes": "32"
      },
      "t_uint8": {
        "encoding": "inplace",
        "label": "uint8",
        "numberOfBytes": "1"
      }
    }
  }
}